:020000040800F2
:10000000684A00209D010008611B000817190008BC
:100010005D1B000809020008C52000080000000060
:1000200000000000000000000000000005010008C2
:100030000D02000800000000490100088D1B0008A7
:10004000B7010008B7010008B7010008B7010008B0
:10005000B7010008B7010008B7010008B7010008A0
:10006000B7010008B7010008B7010008B701000890
:10007000B7010008B7010008B7010008B701000880
:10008000B7010008B7010008B7010008B701000870
:10009000B7010008B7010008B7010008B701000860
:1000A000B7010008B7010008B7010008B701000850
:1000B000051C0008151C0008251C0008B7010008D5
:1000C000B7010008B7010008B7010008B701000830
:1000D000B7010008B5200008B7010008B701000803
:1000E000B7010008B7010008B7010008DFF810D019
:1000F00000F078F8004800479D210008AFF3008029
:10010000684A0020224B19680868B0E8F00F80F3B5
:100110000988BFF36F8F4FF0000080F311884EF015
:100120000D0E70470000000006480068006880F36C
:10013000088862B661B6BFF34F8FBFF36F8F00DFE1
:1001400000BF00BF08ED00E0EFF30980BFF36F8F41
:100150000F4B1A6820E9F00F106008B54FF05000FF
:1001600080F31188BFF34F8FBFF36F8F02F0E6FB70
:100170004FF0000080F31188BDE808401968086856
:10018000B0E8F00F80F30988BFF36F8F704700BFAE
:1001900018000020EFF305807047000006488047F4
:1001A00006480047FEE7FEE7FEE7FEE7FEE7FEE75C
:1001B000FEE7FEE7FEE7FEE7031C0008ED0000088F
:1001C000D2B201E000F8012B491EFBD27047002299
:1001D000F6E710B513460A4604461946FFF7F0FF46
:1001E000204610BD064C074D06E0E06840F00103D4
:1001F00094E8070098471034AC42F6D3FFF77AFF33
:10020000A42D0008C42D000800BFFEE7704772B699
:1002100000BFFEE70146002291F82100022808D025
:100220000420886300BF002081F8200000BF012067
:1002300070470868006820F00E000B6818600868B6
:10024000006820F001000B68186091F84030012030
:100250009840CB6B5860012081F8210000BF00203E
:1002600081F8200000BF1046E2E7000070B50446A8
:10027000002594F82100022803D00420A063012562
:1002800048E02068006820F00E00216808602068BF
:10029000006820F00100216808601F49206888423A
:1002A00001D1012026E01C4914312068884201D187
:1002B00010201FE0184928312068884201D180159C
:1002C00018E015493C312068884201D1801411E0C2
:1002D000114950312068884202D14FF4803009E042
:1002E0000D4964312068884202D14FF4801001E04A
:1002F0004FF08070084908394860012084F82100D7
:1003000000BF002084F8200000BF606B10B12046C1
:10031000616B8847284670BD0800024070B50446EE
:1003200000F0AEF906462546681C10B10448007876
:10033000054400BF00F0A4F9801BA842FAD370BDA9
:10034000100000202DE9F8470346002294466EE194
:100350004FF0010808FA02F4D1F8008008EA04001E
:10036000A0427DD1DFF8DCA2D1F80480A8EB0A0915
:10037000D0453AD014DCB8F1030F50D009DCB8F105
:10038000000F31D0B8F1010F1CD0B8F1020F49D1E4
:1003900020E0B8F1110F18D0B8F1120F42D11EE0D1
:1003A000B9F5881F25D006DCB9F5803F20D0B9F516
:1003B000801F37D11AE0B9F5001F18D0B9F5041F16
:1003C00030D117E0D1F80CC02DE0D1F80C8008F145
:1003D000040C28E0D1F80C8008F1080C23E0D1F8D7
:1003E0000C8008F10C0C1EE000BF00BF00BF00BF76
:1003F00000BF00BFD1F80880B8F1000F02D14FF064
:10040000040C0BE0D1F80880B8F1010F03D14FF0D4
:10041000080C1C6102E04FF0080C5C6103E04FF037
:10042000000C00E000BF00BFFF2801D8984601E0A3
:1004300003F104084646FF2802D84FEA820803E089
:10044000A2F108084FEA88084746D6F800804FF026
:100450000F0909FA07F928EA09080CFA07F900E078
:1004600088E048EA0908C6F80080D1F8048008F05E
:100470008058B8F1805F7DD100BFDFF8CC81D8F81B
:10048000188048F00108DFF8C091C9F81880C84604
:10049000D8F8188008F00108CDF8008000BF00BF30
:1004A0004FEAB9384FEA920958F829504FEA827852
:1004B0004FEA18794FF00F0808FA09F825EA0805FD
:1004C000DFF88881434502D14FF0000816E0DFF8DD
:1004D0008081434502D14FF001080FE0DFF87481BD
:1004E000434502D14FF0020808E0DFF86C81434534
:1004F00002D14FF0030801E04FF004084FEA82797F
:100500004FEA197908FA09F848EA0505DFF84C813D
:100510004FEA920948F82950D1F8048008F480186D
:10052000B8F5801F0AD1DFF83881D8F8008048EA92
:100530000008DFF82C91C9F8008009E0DFF820817D
:10054000D8F8008028EA0008DFF81491C9F8008084
:10055000D1F8048008F40018B8F5001F10D1DFF8B6
:10056000008108F10408D8F8008048EA0008DFF8A4
:10057000F09000E05AE009F10409C9F800800DE0AC
:10058000DFF8DC8008F10408D8F8008028EA0008C9
:10059000DFF8CC9009F10409C9F80080D1F8048093
:1005A00008F40038B8F5003F0ED1DFF8B480A8F1A8
:1005B0000408D8F8008048EA0008DFF8A490A9F100
:1005C0000409C9F800800DE0DFF89480A8F1040860
:1005D000D8F8008028EA0008DFF88490A9F104091F
:1005E000C9F80080D1F8048008F48038B8F5803F5D
:1005F0000ED1DFF86C80A8F10808D8F8008048EA2E
:100600000008DFF85C90A9F10809C9F800800DE046
:10061000DFF84C80A8F10808D8F8008028EA000824
:10062000DFF83C90A9F10809C9F80080521CD1F804
:10063000008028FA02F8B8F1000F7FF489AEBDE817
:10064000F88700000000111000100240000801406F
:10065000000C01400010014000140140080001405E
:1006600008040140024693680B400BB1012000E0F2
:10067000002070470AB1016101E00B04036170477B
:100680000148006870470000080000200348006827
:1006900003490978084401490860704708000020B0
:1006A0001000002010B50848006840F0100006490E
:1006B0000860032000F0DAF8012000F007F800F0ED
:1006C0005DF8002010BD0000002002402DE9F0413F
:1006D00088B004460027B846002600BF2348C069FA
:1006E00040F001002149C8610846C06900F00100DE
:1006F000019000BF00BF02A903A800F091F9069F76
:100700001FB900F0B5F9054602E000F0B1F9450067
:100710001748B5FBF0F0A0F101084FF080401549F3
:10072000086040F2E7311348C160C0F8048000213E
:1007300001618160816100F069FC064696B90D484F
:1007400000F0D6FC06466EB91C2000F041F8102CD3
:1007500007D2002221461C2000F04AF80648046017
:1007600000E00126304608B0BDE8F08100100240EC
:1007700040420F00540100200C00002008B500BFCB
:100780001148806940F001000F498861084680697E
:1007900000F00100009000BF00BF00BF0846C06924
:1007A00040F08050C8610846C06900F08050009059
:1007B00000BF00BF00BF0549486820F0E06040F07E
:1007C0000070486000BF08BD0010024000000140FA
:1007D00001460846002809DB00F01F0301229A4069
:1007E00043099B0003F1E023C3F8002100BF7047D9
:1007F0002DE9F05F80460D461646002701F06CFC9F
:10080000074639462A46334601F00700C0F1070A79
:10081000BAF1040F02D94FF0040A01E0C0F1070A4F
:10082000D14600F1040ABAF1070F02D24FF0000AD4
:1008300001E0A0F1030AD4464FF0010A0AFA09FACE
:10084000AAF1010A0AEA020A0AFA0CFA4FF0010BAD
:100850000BFA0CFBABF1010B0BEA030B4AEA0B049E
:100860002146404601F040FCBDE8F09F00BF00F08B
:100870000702064B19684FF6FF031940044B0B4360
:1008800043EA0221014B196000BF70470CED00E004
:100890000000FA0570B504460D460CB9012070BD84
:1008A0005A48006800F00700A8420ED25748006876
:1008B00020F007002843554908600846006800F00A
:1008C0000700A84201D00120E9E7207800F00200EB
:1008D00002281DD1207800F00400042805D14C48DE
:1008E000406840F4E0604A494860207800F0080021
:1008F000082805D14648406840F4605044494860A3
:100900004348406820F0F000A1680843404948602F
:10091000207800F0010078B36068012806D13C48D7
:10092000006800F4003090B90120B8E76068022840
:1009300006D13748006800F0007040B90120AEE7EA
:100940003348006800F0020008B90120A7E73048EA
:10095000406820F00300616808432D494860FFF7B4
:100960008FFE064609E0FFF78BFE801B41F28831BF
:10097000884202D9032092E707E02548406800F04A
:100980000C006168B0EB810FEDD12048006800F0E9
:100990000700A8420ED91D48006820F00700284330
:1009A0001A4908600846006800F00700A84201D014
:1009B000012074E7207800F00400042807D11448CF
:1009C000406820F4E060E1680843114948602078FD
:1009D00000F00800082808D10D48406820F4605055
:1009E000216940EAC1000A49486000F061F80849FD
:1009F0004968C1F30311074A515CC84006490860C1
:100A000006480068FFF762FE002048E70020024029
:100A1000001002408A2D0008140000200C00002065
:100A20000F2202600D4A526802F0030242600B4A34
:100A3000526802F0F0028260084A526802F4E062F2
:100A4000C260064A526802F46052D2080261044A47
:100A5000126802F007020A607047000000100240AE
:100A60000020024001480068704700001400002088
:100A700000B5FFF7F7FF04494968C1F30221034AB3
:100A8000515CC84000BD0000001002409A2D0008D3
:100A900000B5FFF7E7FF04494968C1F3C221034AE3
:100AA000515CC84000BD0000001002409A2D0008B3
:100AB00070B500210022002400230020134D696836
:100AC00001F00C05F5B1042D02D0082D19D101E07B
:100AD0000F4819E00F4DC1F38346AB5D01F480353B
:100AE00055B10A4D6D68C5F340450B4E725D084D1A
:100AF0005D43B5FBF2F402E0084D03FB05F420462C
:100B000002E000BF024800BF00BF70BD00100240FD
:100B100000127A00782D0008882D000800093D0099
:100B2000F8B504460CB90120F8BD207800F00100AA
:100B3000002878D0F848406800F00C0004280CD059
:100B4000F548406800F00C00082811D1F2484068D0
:100B500000F48030B0F5803F0AD1EF48006800F41F
:100B6000003000285FD0606800285CD10120DBE7FE
:100B700000BF6068B0F5803F06D1E748006840F4E8
:100B80008030E549086028E0606858B9E2480068AC
:100B900020F48030E04908600846006820F4802096
:100BA00008601AE06068B0F5A02F0BD1DA48006841
:100BB00040F48020D84908600846006840F480303E
:100BC00008600AE0D448006820F48030D249086008
:100BD0000846006820F48020086000BF606888B183
:100BE000FFF74EFD054606E0FFF74AFD401B64286F
:100BF00001D9032098E7C848006800F400300028B5
:100C0000F2D010E0FFF73CFD054606E0FFF738FDA7
:100C1000401B642801D9032086E7BF48006800F420
:100C200000300028F2D1207800F00200022857D1CD
:100C3000B948406800F00C0050B1B748406800F077
:100C40000C00082818D1B448406800F4803098B9E6
:100C5000B148006800F0020020B12069012801D0ED
:100C6000012061E7AC48006820F0F800616940EAC3
:100C7000C100A949086033E02069E8B10120A74913
:100C80000860FFF7FDFC054606E0FFF7F9FC401B96
:100C9000022801D9032047E79F48006800F00200BE
:100CA0000028F2D09C48006820F0F800616940EA12
:100CB000C1009949086013E0002098490860FFF7D7
:100CC000DFFC054606E0FFF7DBFC401B022801D9EC
:100CD000032029E79048006800F002000028F2D1C4
:100CE000207800F0080008282DD1A069B8B10120B3
:100CF0008B490860FFF7C4FC054606E0FFF7C0FC1F
:100D0000401B022801D903200EE78348406A00F007
:100D100002000028F2D0012000F024FF13E00020A0
:100D20007F490860FFF7ACFC054606E0FFF7A8FC2A
:100D3000401B022801D90320F6E67748406A00F0FC
:100D400002000028F2D1207800F00400042873D1BA
:100D500000277148C06900F0805070B900BF6E482C
:100D6000C06940F080506C49C8610846C06900F015
:100D70008050009000BF00BF01276A48006800F45F
:100D80008070B0B96748006840F4807065490860B9
:100D9000FFF776FC054606E0FFF772FC401B64286F
:100DA00001D90320C0E65F48006800F48070002885
:100DB000F2D000BFE068012806D15748006A40F031
:100DC00001005549086227E0E06858B95248006AB6
:100DD00020F00100504908620846006A20F0040033
:100DE000086219E0E06805280BD14B48006A40F022
:100DF0000400494908620846006A40F001000862A0
:100E00000AE04548006A20F00100434908620846AC
:100E1000006A20F00400086200BFE068A0B1FFF79C
:100E20002FFC054609E0FFF72BFC401B41F28831FF
:100E3000884202D9032077E622E03748006A00F0B2
:100E400002000028EFD012E0FFF71AFC054608E088
:100E5000FFF716FC401B41F28831884201D903207C
:100E600062E62D48006A00F002000028F0D1012F50
:100E700005D12948C06920F080502749C86100BFCA
:100E8000E069C8B32448406800F00C00082860D02E
:100E9000E069022848D1002020490866FFF7F0FBEE
:100EA000054606E0FFF7ECFB401B022801D90320B2
:100EB0003AE61948006800F000700028F2D1206A74
:100EC000B0F5803F07D11448406820F40030A16895
:100ED000084311494860D4E9080108430E494968AC
:100EE00021F4741108430C49486001200B4908663D
:100EF000FFF7C6FB054607E03DE0FFF7C1FB401BDF
:100F0000022801D903200FE60348006800F00070B2
:100F10000028F2D02FE00000001002400000424202
:100F20008004424200700040002014490866FFF728
:100F3000A7FB054606E0FFF7A3FB401B022801D9EB
:100F40000320F1E50E48006800F000700028F2D19F
:100F500011E0E069012800D1E6E50948466806F499
:100F60008031206A814204D106F47011606A8142A6
:100F700001D00120D8E50020D6E500000000424263
:100F8000001002407047704730B502460B4600BF64
:100F900092F83C00012801D1022030BD012082F8E6
:100FA0003C0000BF022082F83D00106844681068D1
:100FB000816824F070041868044310684460104D80
:100FC0001068A8420BD01068B0F1804F07D00D4DCB
:100FD0001068A84203D00C4D1068A84205D121F03A
:100FE00080015868014310688160012082F83D004B
:100FF00000BF002082F83C0000BF00BFCDE700002A
:10100000002C0140000400400008004010B50446D8
:101010000CB9012010BD94F83D0028B9002084F8D7
:101020003C00204600F026F8022084F83D00211DF7
:10103000206800F0FFFD012084F8460000BF84F81E
:101040003E0001213F20015540200155412001551E
:1010500000BF00BF012084F8420043200155442016
:1010600001554520015500BF012084F83D000020B6
:10107000D0E7000038B504461A492068884216D1E6
:1010800000BF1948C06940F002001749C86108460E
:10109000C06900F00200009000BF00BF00220421E0
:1010A0001D20FFF7A5FB1D20FFF792FB19E00F495C
:1010B0002068884215D100BF0B48C06940F0040089
:1010C0000949C8610846C06900F00400009000BFEB
:1010D00000BF002206211E20FFF78AFB1E20FFF71B
:1010E00077FB38BD000400400010024000080040BB
:1010F000014691F83D00012801D0012070470220EF
:1011000081F83D000868C06840F001000B68D860B5
:10111000124B086898420BD00868B0F1804F07D096
:101120000F4B0868984203D00E4B086898420CD1C8
:101130000868806800F00702062A0CD0086800687A
:1011400040F001000B68186005E00868006840F096
:1011500001000B6818600020D0E70000002C01405F
:1011600000040040000800402DE9F04104460D460F
:10117000002700BF94F83C00012802D10220BDE8FE
:10118000F081012084F83C0000BF022084F83D007B
:101190002068866826F0770626F47F4620688660F9
:1011A0002868502833D00CDC202850D004DC0028DC
:1011B0004BD0102851D149E0302849D040284CD19B
:1011C00039E060282DD0702807D0B0F5805F03D0BB
:1011D000B0F5005F41D10DE041E0D5E902136A6846
:1011E000206800F069FD2068866846F07706206870
:1011F000866034E0D5E902136A68206800F05CFD7F
:101200002068806840F480402168886027E0EA68B0
:101210006968206800F064FD5021206800F057FDE7
:101220001DE0EA686968206800F06DFD60212068B3
:1012300000F04DFD13E0EA686968206800F050FD99
:101240004021206800F043FD09E000BF00BF00BF5F
:101250002968206800F03BFD01E0012700BF00BFC6
:10126000012084F83D0000BF002084F83C0000BF4E
:10127000384684E7704770B504462068C568206822
:10128000066906F00200022819D105F002000228C2
:1012900015D1401F216808610120207720688069EE
:1012A00000F0030018B12046FFF7E4FF05E02046F8
:1012B00000F097F8204600F095F80020207706F01F
:1012C0000400042819D105F00400042815D1C043F6
:1012D00021680861022020772068806900F440704E
:1012E00018B12046FFF7C6FF05E0204600F079F868
:1012F000204600F077F80020207706F00800082844
:1013000019D105F00800082815D1C04321680861EB
:10131000042020772068C06900F0030018B120463F
:10132000FFF7A8FF05E0204600F05BF8204600F03C
:1013300059F80020207706F01000102819D105F088
:101340001000102815D1C0432168086108202077BB
:101350002068C06900F4407018B12046FFF78AFF8A
:1013600005E0204600F03DF8204600F03BF8002064
:10137000207706F0010048B105F0010030B16FF0B0
:10138000010021680861204600F02EF806F0800078
:10139000802809D105F08000802805D1C04321684C
:1013A00008612046FFF7EEFD06F04000402809D115
:1013B00005F04000402805D1C0432168086120465F
:1013C00000F04AF806F02000202809D105F020009E
:1013D000202805D1C043216808612046FFF7D3FDCE
:1013E00070BD70477047000010B504462068B0F12A
:1013F000804F01D1FFF74AF907492068884202D19E
:1014000006A000F061FE0C492068884202D10BA0C2
:1014100000F05AFE10BD00000004004074696D33F6
:10142000D3C5CFC8BCB6CEAA34A3ACD6B4D0D02EC8
:101430002E2E2E2E0D0A00000008004074696D3417
:10144000D3C5CFC8BCB6CEAA36A3ACD6B4D0D02EA6
:101450002E2E2E2E0D0A0000704770477047000098
:101460002DE9F84F0446206805682068C6682068A2
:1014700047694FF00009CA4605F00F09B9F1000F9E
:101480000AD105F0200038B106F0200020B1204636
:1014900000F09DFCBDE8F88FB9F1000F7BD007F09C
:1014A000010018B906F49070002874D005F001000E
:1014B00030B106F4807018B1606C40F001006064D7
:1014C00005F0040030B107F0010018B1606C40F085
:1014D0000200606405F0020030B107F0010018B1AD
:1014E000606C40F00400606405F0080048B106F04C
:1014F000200010B907F0010018B1606C40F008003E
:101500006064606C002845D005F0200028B106F02A
:10151000200010B1204600F05AFC20684069C0F35A
:10152000801A606C00F0080010B9BAF1000F2CD0DE
:10153000204600F006FC2068406900F0400000B33F
:1015400000BF00BF2168143151E8001F21F04000A6
:101550002168143141E80002002AF3D100BFE06B9A
:1015600050B17748E16B4863E06BFEF77FFE88B1CE
:10157000E06B416B88470DE02046FFF76FFF09E005
:1015800009E02046FFF76AFF04E02046FFF766FF08
:10159000002060647EE7206B012877D105F0100001
:1015A000002873D006F010000028FAD000BF0020F9
:1015B000009020680068009020684068009000BF9C
:1015C00000BF2068406900F0400000285FD0E06B59
:1015D000006840681FFA80F8B8F1000F55D0A08D60
:1015E000404552DDA4F82E80E06B8069202843D06E
:1015F00000BF00BF21680C3151E8001F21F480704A
:1016000021680C3141E80002002AF3D100BF00BF7D
:1016100000BF2168143151E8001F21F0010021684A
:10162000143141E80002002AF3D100BF00BF00BF1F
:101630002168143151E8001F21F040002168143165
:1016400041E80002002AF3D100BF202084F84200C4
:101650000020206300BF00BF21680C3151E8001F4B
:1016600021F0100021680C3141E80002002AF3D17A
:1016700000BFE06BFEF7CEFD02206063A08DE28D1F
:10168000801A81B22046FFF7E8FE03E742E0A08D12
:10169000E18D401A1FFA80F8E08DD0B3B8F1000F49
:1016A00037D000BF00BF21680C3151E8001F21F482
:1016B000907021680C3141E80002002AF3D100BF8C
:1016C00000BF00BF2168143151E8001F21F0010064
:1016D0002168143141E80002002AF3D100BF202024
:1016E00084F842000020206300BF00BF21680C3155
:1016F00051E8001F21F0100021680C3141E8000280
:10170000002AF3D100BF0220606341462046FFF764
:10171000A4FEBFE605F0800030B106F0800018B1ED
:10172000204600F051FCB5E605F0400030B106F06F
:10173000400018B1204600F03AFBABE600BFA9E636
:101740002F1D000810B504460CB9012010BDA0697A
:1017500000B100E000BF94F8410028B9002084F8EF
:101760004000204600F02AF8242084F84100206838
:10177000C06820F400502168C860204600F0A6FB35
:101780002068006920F49040216808612068406961
:1017900020F02A00216848612068C06840F40050A9
:1017A0002168C86000206064202084F8410084F82B
:1017B00042000020606300BFC8E7000010B586B09B
:1017C0000446002002900390049005901E49206872
:1017D000884236D100BF1D48806940F480401B49D3
:1017E00088610846806900F48040019000BF00BF16
:1017F00000BF0846806940F004008861084680699F
:1018000000F00400019000BF00BF481502900220C4
:1018100003900320059002A90D48FEF793FD4FF4B5
:101820008060029000200390049002A90848FEF70F
:1018300089FD002211462520FEF7DAFF2520FEF75C
:10184000C7FF06B010BD0000003801400010024084
:101850000008014070472DE9F84F04460E46174630
:1018600099464FF0000A94F84100202850D106B163
:1018700017B90120BDE8F88F00206064212084F8AA
:101880004100FEF7FDFE8246A784E784A068B0F51C
:10189000805F04D1206910B90025B04602E03546CA
:1018A0004FF000081EE05346002280212046CDF86C
:1018B000009000F0B9FB20B1202084F84100032003
:1018C000D8E745B9B8F80000C0F3080021684860BF
:1018D00008F1020803E02878216848606D1CE08C5C
:1018E000401EE084E08C0028DDD1534600224021D8
:1018F0002046CDF8009000F097FB20B1202084F81E
:1019000041000320B6E7202084F841000020B1E721
:101910000220AFE7704700BFFEE7000010B50024CB
:1019200002211B48FEF79EFE88B14FF40061184863
:10193000FEF798FE58B14FF480511548FEF792FE1D
:1019400028B14FF400411248FEF78CFEE8B90A2096
:10195000FEF7E4FC02210E48FEF784FE00B90124E4
:101960004FF400610A48FEF77DFE00B902244FF4EF
:1019700080510748FEF776FE00B903244FF400417A
:101980000348FEF76FFE00B90424204610BD000096
:10199000000C014000B585B000200190029003903A
:1019A000049000BF2448806940F0200022498861EB
:1019B0000846806900F02000009000BF00BF00BF13
:1019C0000846806940F0040088610846806900F09C
:1019D0000400009000BF00BF00BF0846806940F0CF
:1019E000080088610846806900F00800009000BF88
:1019F00000BF012202211148FEF73CFE00220C210B
:101A00000E48FEF737FE0E200190012002900020C4
:101A100003900220049001A90848FEF793FC49F6C0
:101A200002000190002002900120039001A90448C7
:101A3000FEF788FC05B000BD001002400008014020
:101A4000000C014000B587B0002003900490059081
:101A500006900190029015481549086041F61F4014
:101A6000486000211248816042F20F71C16000217C
:101A700001618161FFF7CAFA08B1FEF7C8FB4FF4B4
:101A80008050039003A90A48FFF76EFB08B1FEF7E8
:101A9000BEFB00200190029001A90548FFF774FAEF
:101AA00008B1FEF7B4FB07B000BD00000004004021
:101AB0007C00002000B587B00020039004900590C2
:101AC00006900190029015481549086041F61F40A4
:101AD000486000211248816042F20F71C16000210C
:101AE00001618161FFF792FA08B1FEF790FB4FF4B4
:101AF0008050039003A90A48FFF736FB08B1FEF7B0
:101B000086FB00200190029001A90548FFF73CFAEE
:101B100008B1FEF77CFB07B000BD000000080040E4
:101B2000C400002010B50B480B4908604FF4E130A9
:101B30004860002108488160C16001610C21416159
:101B400000218161C161FFF7FDFD08B1FEF75FFB78
:101B500010BD0000003801400C01002000BFFEE76E
:101B600000BFFEE708B508490968C9084FF47A7252
:101B7000B1FBF2F14143009100BF00BF00994A1E42
:101B800000920029F9D108BD1400002010B500F022
:101B90006DFF012801D000F01BFF10BD00B58FB014
:101BA000282105A8FEF713FB14216846FEF70FFB5A
:101BB0000120059000040690002007900120099064
:101BC00002200C90C1030D914FF4E0110E9105A875
:101BD000FEF7A6FF08B1FEF71AFB0F2000900220C7
:101BE0000190002002904FF4806003900020049048
:101BF00002216846FEF74EFE08B1FEF708FB0FB063
:101C000000BD704710B50248FFF735FB10BD00005E
:101C10005401002010B50248FFF72DFB10BD000055
:101C20007C00002010B50248FFF725FB10BD000026
:101C3000C400002010B502681C4B984208D0B0F1D7
:101C4000804F05D01A4B984202D01A4B984203D1CC
:101C500022F070024B681A43144B984208D0B0F13E
:101C6000804F05D0124B984202D0124B984203D1BC
:101C700022F44072CB681A4322F080034C6943EA95
:101C8000040202608B68C3620B688362074B984250
:101C900001D10B69036301234361036903F001036D
:101CA0001BB1036923F00103036110BD002C014047
:101CB000000400400008004030B50C46816821F463
:101CC0007F4142EA032525432943816030BD0A460E
:101CD000816821F0700142F0070319438160704769
:101CE00030B50B461446026A056A25F00105056207
:101CF000816921F0F00141EA041122F00A021A433D
:101D00008161026230BD30B50B461446026A056A35
:101D100025F010050562816921F4704141EA043122
:101D200022F0A00242EA03128161026230BD70B566
:101D300005466C6A0020E085E0842046FFF78EFBB4
:101D400070BD00BF00BF02680C3252E8002F22F4C1
:101D5000907102680C3242E80013002BF3D100BFEF
:101D600000BF00BF0268143252E8002F22F00101C8
:101D70000268143242E80013002BF3D100BF016B5C
:101D800001290ED100BF00BF02680C3252E8002FBB
:101D900022F0100102680C3242E80013002BF3D14C
:101DA00000BF202180F8421000210163704710B568
:101DB00004462068C06820F040002168C8602020E8
:101DC00084F841002046FFF7A5FD002010BDF8B5BE
:101DD000044694F84200222875D1A068B0F5805FCF
:101DE0000CD1206950B90025A66A20684068C0F36C
:101DF00008003080A06A801CA06215E0A56A002659
:101E0000A068B0F5805F03D0A06828B9206918B930
:101E100020684068287004E02068406800F07F0077
:101E20002870A06A401CA062E08D401E80B2E08550
:101E3000002846D12068C06820F020002168C860D2
:101E40002068C06820F480702168C86020684069FC
:101E500020F0010021684861202084F84200002021
:101E60006063206B012826D10020206300BF00BFE3
:101E700021680C3151E8001F21F0100021680C315D
:101E800041E80002002AF3D100BF2068006800F09A
:101E9000100010280AD100BF0020009020680068C0
:101EA000009020684068009000BF00BFA18D2046D0
:101EB000FFF7D3FA02E02046FFF7CCFC0020F8BD84
:101EC00001E00020FBE70220F9E7000070B50446BE
:101ED0002168096921F44051E268114322681161C7
:101EE0002269A1681143626941EA02052168C96853
:101EF00041F20C62914329432268D160216849690B
:101F000021F44071A2691143226851612D4A216870
:101F1000914202D1FEF7BCFD01E0FEF7A9FD00EB06
:101F2000C00101EB001162689200B1FBF2F100EB1D
:101F3000C00202EB001263689B00B2FBF3F2642361
:101F4000B2FBF3F202EBC20303EB0212A1EB82013C
:101F5000322202EB01116422B1FBF2F101F0F00137
:101F600000EBC00202EB001263689B00B2FBF3F2CD
:101F70006423B2FBF3F201EB021200EBC00101EBB0
:101F8000001163689B00B1FBF3F100EBC00303EBAE
:101F900000136668B600B3FBF6F36426B3FBF6F3F2
:101FA00003EBC30606EB0313A1EB8301322303EB20
:101FB00001116423B1FBF3F101F00F011144226818
:101FC000916070BD00380140014691F84100212820
:101FD00028D18868B0F5805F0BD1086948B90A6AD2
:101FE0001088C0F308000B685860086A801C0862FB
:101FF00005E00B6A581C086218780B685860C88C9A
:10200000401E80B2C88458B90868C06820F08000BB
:102010000B68D8600868C06840F040000B68D86062
:10202000002070470220FCE72DE9F84304460D46E6
:1020300017469846089E31E0701C70B3FEF720FBEF
:10204000A0EB0800B04200D816B90320BDE8F88321
:102050002068C06800F00400F8B1802D1ED0402D2B
:102060001CD020680068C0F3C000B0B100BF0020E1
:10207000009020680068009020684068009000BFD1
:1020800000BF2046FFF75DFE0820606400BF00200F
:1020900084F8400000BF0120D8E7FFE7206800680F
:1020A0002840A84201D1012000E00020B842C3D05E
:1020B0000020CBE710B50248FFF7D2F910BD0000B1
:1020C0000C01002000BFFEE7014A024900F02FB8D2
:1020D000512100087800002002480068C0F3022067
:1020E000704700000CED00E010B5002804DB0A0783
:1020F000130E054A135406E00A07140E034A00F0B3
:102100000F031B1FD45410BD00E400E018ED00E0E5
:1021100002E008C8121F08C1002AFAD170477047B0
:10212000002001E001C1121F002AFBD170472DE9F8
:10213000F04116460F460446002503E03946B047F5
:10214000641C6D1C20780028F8D12846BDE8F08179
:1021500013B50C464FF47A73012269460248FFF723
:102160007AFB00981CBD00000C0100201CB506483D
:10217000012100238022CDE9001004A1064800F0CF
:1021800041FC00F09DFB1CBD0000002073746172D7
:10219000745F7461736B000045260008FEF782FAD5
:1021A000FFF7FCFCFFF7F6FBFFF7BCFCFFF74AFC70
:1021B000FFF780FC0448FEF79BFF0448FEF798FFFA
:1021C000FFF7D4FF00BFFEE77C000020C400002022
:1021D00010B5044600F0B6FA2F480068401C2E499E
:1021E00008602E48006840B92C4804600846006822
:1021F00001280DD100F016F90AE02948006838B925
:1022000026480068C06AE16A884201D82348046011
:1022100024480068401C2349086094F82C100120D1
:1022200088402149096808431F490860E16A01EBB9
:1022300081011E4A02EB81014868A0608268E26069
:10224000211D826851608160E16A01EB8101174ABA
:1022500002EB81026261E16A01EB8101134A52F8EB
:102260002110491CE26A02EB8202104B43F8221053
:1022700000F07AFA0A48006868B108480068C06A45
:10228000E16A884207D24FF0805009490860BFF3E5
:102290004F8FBFF36F8F10BD280000201800002063
:1022A0003400002044000020300000209C01002069
:1022B00004ED00E010B516E000F044FA0C48C068E8
:1022C000C468201D00F00EFA0A480068401E094943
:1022D000086009480068401E0749086000F044FA99
:1022E000204600F00BF8044800680028E4D110BD37
:1022F0003C020020280000202400002010B50446E5
:10230000206B00F041FA204600F03EFA10BD0000BC
:1023100030B54FF48843154800F007042CB1C01DB8
:1023200020F00700114C041B1B1B0246104C2260BE
:1023300000240F4D6C60D018083820F007000D4CB9
:10234000206000240B4D2D686C600A4D2D682C60B8
:102350001146441A4C60074C24680C60064D4C68CA
:102360002C60064D4C682C6030BD000064020020DB
:102370005C000020640000206C0000206800002049
:1023800000BFFFF797FF064800680128F9D94FF012
:10239000805004490860BFF34F8FBFF36F8FF0E7A1
:1023A0009C01002004ED00E02DE9FF5F80460E4611
:1023B0009146DDE90E7A109CA9F10100216B01EB39
:1023C000800B2BF0070B7EB1002507E0715D04F157
:1023D00034004155705D00B902E06D1C102DF5D33D
:1023E00000BF002143200155052F00D30427E762D9
:1023F000201D00F098F904F1180000F094F9246110
:10240000C7F10500A061646241465846039A00F096
:1024100007F92060BAF1000F01D0CAF80040BDE80A
:10242000FF9F000010B5002407E004EB84010F4A71
:1024300002EB810000F06AF9641C052CF5D30C480E
:1024400000F064F90B4800F061F90B4800F05EF908
:102450000A4800F05BF90A4800F058F904480949B5
:10246000086004480849086010BD00009C01002075
:102470000002002014020020280200203C0200205C
:10248000500200201C0000202000002010B5014652
:10249000164800E0006803688B42FBD3024643689D
:1024A00013448B4204D143684C6823444360014683
:1024B0000A464B6813440468A34211D10C4C0368CC
:1024C0002468A34208D04B680468646823444B60C6
:1024D00003681B680B6005E0054B1B680B6001E09F
:1024E00003680B60884200D0016010BD5C000020D2
:1024F0006400002009480068006808B9012000E075
:10250000002020B14FF0FF300549086005E0034886
:102510000068C06800680249086070471C0000201D
:102520004800002000BF502080F31188BFF34F8F78
:10253000BFF36F8F00BF00BFFEE700002DE9F0473B
:1025400005464FF0000900F0F1F93048006808B97D
:10255000FFF7DEFE75B105F00700C0F11008C8F105
:10256000FF30A84201D2012000E0002008B9454414
:1025700000E00025012000EBE570002841D0002D8F
:102580003FD02348006885423BD8224E304604683D
:1025900001E0264624686068A84202D2206800282C
:1025A000F7D11A48006884422BD0306800F108093E
:1025B000206830606068401B102807D96719606880
:1025C000401B786065603846FFF760FF104960681F
:1025D0000968081A0E490860084600680E4909682B
:1025E000884203D20A4800680B490860606840F0DE
:1025F000004060600020206008480068401C0749D7
:10260000086000F00BFB4846BDE8F087640000203E
:10261000680000205C0000206C000020700000209A
:10262000001F4FF080730360001F21F0010303605F
:10263000001F034B0360143802602038704700000D
:10264000252500081CB5044600F07CF80748022147
:1026500000238022CDE9001005A1074800F0D2F93F
:10266000002000F0C3F800F07FF81CBD040000203B
:102670007461736B310000007D26000800241FE0A8
:10268000FFF74CF90446012C0CD10EA0FFF71CFDFE
:1026900000BF502080F31188BFF34F8FBFF36F8FBF
:1026A00000BF09E0022C07D10AA0FFF70DFD0020B2
:1026B00080F3118800BF00BF4FF4FA70FDF72EFEC3
:1026C000DEE700003E3E3E3EB9D8D6D0B6CF2E2E35
:1026D0002E0D0A003E3E3E3EBFAAD6D0B6CF2E2ECD
:1026E0002E0D0A0001460A69D1E901309860D1E94E
:1026F000010358605068884201D18868506000200A
:1027000008611068401E10601068704700F10801F1
:1027100041604FF0FF31816000F10801C16001614B
:1027200000210160704700210161704742684A60E2
:1027300093688B60936859609160086103685B1CC3
:102740000360704700BF502080F31188BFF34F8FA4
:10275000BFF36F8F00BF03480068401C0149086049
:10276000704700005800002006480068401E0549D8
:1027700008600846006820B9002080F3118800BF77
:1027800000BF70475800002070B506463546E6B1D8
:10279000083D2C466068C00FB8B12068A8B96068D1
:1027A00020F00040606000F0C1F8084960680968E6
:1027B0000844064908602046FFF768FE04480068A0
:1027C000401C0349086000F029FA70BD6800002031
:1027D0007400002000204FF0E02108618861024869
:1027E00048610720086170473F19010070B5054630
:1027F000FFF7A8FF15B92948006800E028460446FD
:10280000201DFFF76FFF78B9E06A00EB80002449D4
:1028100051F8200040B994F82C100120884021493B
:10282000096881431F480160A06A18B104F11800CB
:10283000FFF758FF1C480068401C1B4908601748F8
:102840000068844209D1211D1848FFF76FFF18481E
:102850000068401C1649086006E016480068401EE3
:1028600014490860FFF746FEFFF77EFF0B4800683B
:10287000844202D02046FFF741FD0F48006858B15E
:1028800006480068844207D14FF080500B49086029
:10289000BFF34F8FBFF36F8F70BD00001800002093
:1028A0009C01002030000020440000203C02002059
:1028B00024000020280000203400002004ED00E067
:1028C0001CB5124800210B468022CDE9001010A152
:1028D000114800F097F80446012C14D100BF502095
:1028E00080F31188BFF34F8FBFF36F8F00BF4FF09E
:1028F000FF300A49086001200949086000200949A1
:10290000086000F04BF8084800681CBD4C0000202F
:1029100049444C4500000000812300084800002085
:10292000340000202C0000205000002002480068E5
:10293000401C01490860704754000020124800689C
:1029400018B10120114908601DE000200F490860FE
:102950000F480068B0FA80F0C0F11F0101EB81025E
:102960000C4B03EB820042685268426000F108029F
:102970004368934202D14268526842604268D2681A
:10298000054B1A6000BF7047540000203C00002037
:10299000300000209C0100201800002010B50A48DB
:1029A000006840F47000084908600846006840F07C
:1029B00070400860FFF70EFF002004490860FDF733
:1029C000B3FB002010BD000020ED00E05800002007
:1029D00010B500BF502080F31188BFF34F8FBFF3B5
:1029E0006F8F00BF00F052F818B14FF080500449CB
:1029F000086000BF002080F3118800BF10BD0000F8
:102A000004ED00E02DE9FF4F85B08046894617466A
:102A1000DDE912ABB800FFF791FD064676B14C2018
:102A2000FFF78CFD04462CB14C212046FDF7CFFB6F
:102A3000266304E03046FFF7A7FE00E000247CB1E7
:102A40000020CDE900ABCDE902403A464946404678
:102A5000089BFFF7A9FC2046FFF7BAFB012501E020
:102A60004FF0FF35284609B0BDE8F08F05490968E9
:102A700009B9012005E00449096809B9022000E00C
:102A80000020704734000020540000202DE9F04160
:102A900000275748006800287ED156480068451C2A
:102AA000544805608DB95448D0F8008053480068F8
:102AB000514908605148C0F8008051480068401CE6
:102AC0004F490860FFF716FD00BF4E480068854279
:102AD00076D300BF48480068006808B9012000E0CC
:102AE000002020B14FF0FF304649086067E04248BF
:102AF0000068C068C4686668B54202D24148066092
:102B00005DE06069D4E902128A60D4E902214A607A
:102B1000211D42688A4201D1E16841600022626160
:102B20000168491E0160A06A98B1A06AD4E9071241
:102B30008A60D4E907214A6004F1180142688A4298
:102B400001D1216A41600022A2620168491E016030
:102B500000BF94F82C10012088402B4909680843D5
:102B600029490860E16A01EB8101284A02EB8101F1
:102B70004868A0608268E260211D826851608160BF
:102B8000E16A01EB8101214A02EB81026261E16AA3
:102B900001EB81011D4A00E022E052F82110491C9E
:102BA000E26A02EB8202194B43F822101849E06AEC
:102BB0000968C96A88428DD901278BE700E000BF08
:102BC00013480068C06A00EB8000104951F82000EB
:102BD000012800D901270F48006800B1012704E04F
:102BE0000D480068401C0C4908603846BDE8F0817B
:102BF000540000202C0000201C0000202000002099
:102C00004000002048000020300000209C010020EF
:102C1000180000203C0000203800002070B500247F
:102C20000026FFF78FFD4B480068401E49490860A9
:102C30000846006800287DD147480068002879D000
:102C40005BE04648C068C468A06AD4E907128A609D
:102C5000D4E907214A6004F1180142688A4201D18F
:102C6000216A41600022A2620168491E0160606918
:102C7000D4E902128A60D4E902214A60211D426827
:102C80008A4201D1E1684160002262610168491E07
:102C9000016094F82C1001208840314909680843EC
:102CA0002F490860E16A01EB81012E4A02EB8101A4
:102CB0004868A0608268E260211D8268516081607E
:102CC000E16A01EB8101274A02EB81026261E16A5C
:102CD00001EB8101234A52F82110491CE26A02EB00
:102CE0008202204B43F822101F49E06A0968C96A32
:102CF000884202D301201D4908601848006808B9BD
:102D0000012000E0002000289BD00CB1FFF7F2FB6F
:102D10001748056865B100BFFFF7B8FE10B1012084
:102D2000124908606D1E002DF6D100201049086080
:102D30000E4800E009E0006838B1012630070D496F
:102D40000860BFF34F8FBFF36F8FFFF70DFD304665
:102D500070BD000054000020280000202802002040
:102D6000300000209C010020180000203C000020C2
:102D70003800002004ED00E00203040506070809FE
:102D80000A0B0C0D0E0F10100102000000000000D5
:102D90000000010203040607080900000000010208
:102DA00003040000C42D0008000000207C00000087
:102DB00010210008402E00087C000020EC49000093
:102DC00020210008000000000000000000000000BA
:102DD000100000000100000000127A000000000056
:102DE00000000000000000000000000000000000E3
:102DF00000000000000000000000000000000000D3
:102E000000000000000000000000000000000000C2
:102E1000000000000400000000000000AAAAAAAA06
:102E200000000000000000000000000000000000A2
:102E30000000000000000000000000000000000092
:04000005080000ED02
:00000001FF
