:020000040800F2
:10000000681600209D01000861180008E31600082A
:100010005D1800082D0200082D1D000800000000DA
:1000200000000000000000000000000005010008C2
:100030003102000800000000490100088D18000886
:10004000B7010008B7010008B7010008B7010008B0
:10005000B7010008B7010008B7010008B7010008A0
:10006000B7010008B7010008B7010008B701000890
:10007000B7010008B7010008B7010008B701000880
:10008000B7010008B7010008B7010008B701000870
:10009000B7010008B7010008B7010008B701000860
:1000A000B7010008B7010008B7010008B701000850
:1000B00005190008B7010008B7010008B7010008DA
:1000C000B7010008B7010008B7010008B701000830
:1000D000B70100081D1D0008B7010008B70100089E
:1000E000B7010008B7010008B7010008DFF810D019
:1000F00000F08AF800480047151E0008AFF30080A2
:1001000068160020224B19680868B0E8F00F80F3E9
:100110000988BFF36F8F4FF0000080F311884EF015
:100120000D0E70470000000006480068006880F36C
:10013000088862B661B6BFF34F8FBFF36F8F00DFE1
:1001400000BF00BF08ED00E0EFF30980BFF36F8F41
:100150000F4B1A6820E9F00F106008B54FF0BF0090
:1001600080F31188BFF34F8FBFF36F8F02F01AFD3A
:100170004FF0000080F31188BDE808401968086856
:10018000B0E8F00F80F30988BFF36F8F704700BFAE
:1001900020000020EFF305807047000006488047EC
:1001A00006480047FEE7FEE7FEE7FEE7FEE7FEE75C
:1001B000FEE7FEE7FEE7FEE703190008ED00000892
:1001C00040EA01039B0703D009E008C9121F08C0D9
:1001D000042AFAD203E011F8013B00F8013B521E59
:1001E000F9D27047D2B201E000F8012B491EFBD2D0
:1001F00070470022F6E710B513460A460446194632
:10020000FFF7F0FF204610BD064C074D06E0E06802
:1002100040F0010394E8070098471034AC42F6D34D
:10022000FFF768FFB4330008D433000800BFFEE7CF
:10023000704772B600BFFEE70146002291F8210028
:10024000022808D00420886300BF002081F8200025
:1002500000BF012070470868006820F00E000B689E
:1002600018600868006820F001000B68186091F8B9
:10027000403001209840CB6B5860012081F821006C
:1002800000BF002081F8200000BF1046E2E7000018
:1002900070B50446002594F82100022803D00420FC
:1002A000A063012548E02068006820F00E00216866
:1002B00008602068006820F00100216808601F497C
:1002C0002068884201D1012026E01C4914312068B1
:1002D000884201D110201FE0184928312068884247
:1002E00001D1801518E015493C312068884201D1C0
:1002F000801411E0114950312068884202D14FF436
:10030000803009E00D4964312068884202D14FF401
:10031000801001E04FF080700849083948600120E2
:1003200084F8210000BF002084F8200000BF606B2B
:1003300010B12046616B8847284670BD0800024016
:1003400070B5044600F0B8F906462546681C10B1A1
:1003500004480078054400BF00F0AEF9801BA842B5
:10036000FAD370BD180000202DE9F847034600229B
:1003700094466EE14FF0010808FA02F4D1F80080CB
:1003800008EA0400A0427DD1DFF8DCA2D1F80480A5
:10039000A8EB0A09D0453AD014DCB8F1030F50D0CD
:1003A00009DCB8F1000F31D0B8F1010F1CD0B8F161
:1003B000020F49D120E0B8F1110F18D0B8F1120F97
:1003C00042D11EE0B9F5881F25D006DCB9F5803F83
:1003D00020D0B9F5801F37D11AE0B9F5001F18D029
:1003E000B9F5041F30D117E0D1F80CC02DE0D1F8D9
:1003F0000C8008F1040C28E0D1F80C8008F1080CFE
:1004000023E0D1F80C8008F10C0C1EE000BF00BF07
:1004100000BF00BF00BF00BFD1F80880B8F1000FD7
:1004200002D14FF0040C0BE0D1F80880B8F1010FB5
:1004300003D14FF0080C1C6102E04FF0080C5C6126
:1004400003E04FF0000C00E000BF00BFFF2801D820
:10045000984601E003F104084646FF2802D84FEA17
:10046000820803E0A2F108084FEA88084746D6F858
:1004700000804FF00F0909FA07F928EA09080CFA79
:1004800007F900E088E048EA0908C6F80080D1F8DA
:10049000048008F08058B8F1805F7DD100BFDFF89C
:1004A000CC81D8F8188048F00108DFF8C091C9F86D
:1004B0001880C846D8F8188008F00108CDF80080E8
:1004C00000BF00BF4FEAB9384FEA920958F82950E7
:1004D0004FEA82784FEA18794FF00F0808FA09F8C6
:1004E00025EA0805DFF88881434502D14FF000086E
:1004F00016E0DFF88081434502D14FF001080FE09C
:10050000DFF87481434502D14FF0020808E0DFF8BC
:100510006C81434502D14FF0030801E04FF004081D
:100520004FEA82794FEA197908FA09F848EA05058D
:10053000DFF84C814FEA920948F82950D1F804803D
:1005400008F48018B8F5801F0AD1DFF83881D8F890
:10055000008048EA0008DFF82C91C9F8008009E023
:10056000DFF82081D8F8008028EA0008DFF814912D
:10057000C9F80080D1F8048008F40018B8F5001F0D
:1005800010D1DFF8008108F10408D8F8008048EAAB
:100590000008DFF8F09000E05AE009F10409C9F81A
:1005A00000800DE0DFF8DC8008F10408D8F8008056
:1005B00028EA0008DFF8CC9009F10409C9F80080A6
:1005C000D1F8048008F40038B8F5003F0ED1DFF808
:1005D000B480A8F10408D8F8008048EA0008DFF8E1
:1005E000A490A9F10409C9F800800DE0DFF8948017
:1005F000A8F10408D8F8008028EA0008DFF8849001
:10060000A9F10409C9F80080D1F8048008F4803801
:10061000B8F5803F0ED1DFF86C80A8F10808D8F853
:10062000008048EA0008DFF85C90A9F10809C9F8E1
:1006300000800DE0DFF84C80A8F10808D8F80080B1
:1006400028EA0008DFF83C90A9F10809C9F8008001
:10065000521CD1F8008028FA02F8B8F1000F7FF49C
:1006600089AEBDE8F88700000000111000100240BC
:1006700000080140000C014000100140001401403E
:100680000800014008040140024693680B400BB18A
:10069000012000E00020704710B5C26821EA020383
:1006A00002EA010443EA0443036110BD0AB1016197
:1006B00001E00B04036170470148006870470000C7
:1006C00010000020034800680349097808440149E4
:1006D00008607047100000201800002010B508487E
:1006E000006840F0100006490860032000F0DAF8C6
:1006F000012000F007F800F05DF8002010BD0000B8
:10070000002002402DE9F04188B004460027B84699
:10071000002600BF2348C06940F001002149C8619C
:100720000846C06900F00100019000BF00BF02A9A7
:1007300003A800F091F9069F1FB900F0B5F905462E
:1007400002E000F0B1F945001748B5FBF0F0A0F168
:1007500001084FF080401549086040F2E731134826
:10076000C160C0F80480002101618160816100F0F6
:1007700027FC064696B90D4800F056FC06466EB9B1
:100780001C2000F041F8102C07D2002221461C202A
:1007900000F04AF80648046000E00126304608B040
:1007A000BDE8F0810010024040420F00E000002050
:1007B0001400002008B500BF1148806940F0010016
:1007C0000F4988610846806900F00100009000BF71
:1007D00000BF00BF0846C06940F08050C8610846AD
:1007E000C06900F08050009000BF00BF00BF054905
:1007F000486820F0E06040F00070486000BF08BD2D
:10080000001002400000014001460846002809DBB4
:1008100000F01F0301229A4043099B0003F1E023EB
:10082000C3F8002100BF70472DE9F05F80460D46F8
:100830001646002701F084FA074639462A46334611
:1008400001F00700C0F1070ABAF1040F02D94FF016
:10085000040A01E0C0F1070AD14600F1040ABAF126
:10086000070F02D24FF0000A01E0A0F1030AD446BC
:100870004FF0010A0AFA09FAAAF1010A0AEA020A81
:100880000AFA0CFA4FF0010B0BFA0CFBABF1010B5F
:100890000BEA030B4AEA0B042146404601F058FAE2
:1008A000BDE8F09F00BF00F00702064B19684FF645
:1008B000FF031940044B0B4343EA0221014B19602B
:1008C00000BF70470CED00E00000FA0570B504466B
:1008D0000D460CB9012070BD5A48006800F00700B1
:1008E000A8420ED25748006820F007002843554917
:1008F00008600846006800F00700A84201D0012007
:10090000E9E7207800F0020002281DD1207800F0ED
:100910000400042805D14C48406840F4E0604A498E
:100920004860207800F00800082805D14648406853
:1009300040F46050444948604348406820F0F0006B
:10094000A168084340494860207800F0010078B36E
:100950006068012806D13C48006800F4003090B976
:100960000120B8E76068022806D13748006800F027
:10097000007040B90120AEE73348006800F0020083
:1009800008B90120A7E73048406820F003006168FB
:1009900008432D494860FFF78FFE064609E0FFF740
:1009A0008BFE801B41F28831884202D9032092E7F6
:1009B00007E02548406800F00C006168B0EB810F4B
:1009C000EDD12048006800F00700A8420ED91D486C
:1009D000006820F0070028431A49086008460068AC
:1009E00000F00700A84201D0012074E7207800F051
:1009F0000400042807D11448406820F4E060E1684E
:100A0000084311494860207800F00800082808D100
:100A10000D48406820F46050216940EAC1000A494D
:100A2000486000F061F808494968C1F30311074ABA
:100A3000515CC8400649086006480068FFF762FE3E
:100A4000002048E700200240001002409A330008CE
:100A50001C000020140000200F2202600D4A526882
:100A600002F0030242600B4A526802F0F002826018
:100A7000084A526802F4E062C260064A526802F410
:100A80006052D2080261044A126802F007020A604A
:100A9000704700000010024000200240014800683A
:100AA000704700001C00002000B5FFF7F7FF044965
:100AB0004968C1F30221034A515CC84000BD0000EF
:100AC00000100240AA33000800B5FFF7E7FF044911
:100AD0004968C1F3C221034A515CC84000BD00000F
:100AE00000100240AA33000870B500210022002443
:100AF00000230020134D696801F00C05F5B1042DA9
:100B000002D0082D19D101E00F4819E00F4DC1F3B3
:100B10008346AB5D01F4803555B10A4D6D68C5F370
:100B200040450B4E725D084D5D43B5FBF2F402E0AB
:100B3000084D03FB05F4204602E000BF024800BF59
:100B400000BF70BD0010024000127A008833000818
:100B50009833000800093D00F8B504460CB901209F
:100B6000F8BD207800F00100002878D0F8484068EF
:100B700000F00C0004280CD0F548406800F00C0090
:100B8000082811D1F248406800F48030B0F5803F69
:100B90000AD1EF48006800F4003000285FD0606898
:100BA00000285CD10120DBE700BF6068B0F5803F22
:100BB00006D1E748006840F48030E549086028E045
:100BC000606858B9E248006820F48030E049086065
:100BD0000846006820F4802008601AE06068B0F5DC
:100BE000A02F0BD1DA48006840F48020D849086073
:100BF0000846006840F4803008600AE0D448006885
:100C000020F48030D24908600846006820F4802033
:100C1000086000BF606888B1FFF74EFD054606E03A
:100C2000FFF74AFD401B642801D9032098E7C84814
:100C3000006800F400300028F2D010E0FFF73CFD1F
:100C4000054606E0FFF738FD401B642801D9032064
:100C500086E7BF48006800F400300028F2D1207811
:100C600000F00200022857D1B948406800F00C009B
:100C700050B1B748406800F00C00082818D1B448BB
:100C8000406800F4803098B9B148006800F0020074
:100C900020B12069012801D0012061E7AC4800683B
:100CA00020F0F800616940EAC100A949086033E01A
:100CB0002069E8B10120A7490860FFF7FDFC05465F
:100CC00006E0FFF7F9FC401B022801D9032047E7A3
:100CD0009F48006800F002000028F2D09C4800689D
:100CE00020F0F800616940EAC1009949086013E00A
:100CF000002098490860FFF7DFFC054606E0FFF793
:100D0000DBFC401B022801D9032029E7904800683A
:100D100000F002000028F2D1207800F00800082836
:100D20002DD1A069B8B101208B490860FFF7C4FC40
:100D3000054606E0FFF7C0FC401B022801D903204E
:100D40000EE78348406A00F002000028F2D001203C
:100D500000F088FD13E000207F490860FFF7ACFC3D
:100D6000054606E0FFF7A8FC401B022801D9032036
:100D7000F6E67748406A00F002000028F2D12078B9
:100D800000F00400042873D100277148C06900F006
:100D9000805070B900BF6E48C06940F080506C4907
:100DA000C8610846C06900F08050009000BF00BFD5
:100DB00001276A48006800F48070B0B9674800688D
:100DC00040F4807065490860FFF776FC054606E050
:100DD000FFF772FC401B642801D90320C0E65F487E
:100DE000006800F480700028F2D000BFE06801289D
:100DF00006D15748006A40F001005549086227E0D3
:100E0000E06858B95248006A20F001005049086271
:100E10000846006A20F00400086219E0E06805282E
:100E20000BD14B48006A40F004004949086208466B
:100E3000006A40F0010008620AE04548006A20F0BC
:100E40000100434908620846006A20F00400086275
:100E500000BFE068A0B1FFF72FFC054609E0FFF7EF
:100E60002BFC401B41F28831884202D9032077E6EF
:100E700022E03748006A00F002000028EFD012E0BC
:100E8000FFF71AFC054608E0FFF716FC401B41F28D
:100E90008831884201D9032062E62D48006A00F0BB
:100EA00002000028F0D1012F05D12948C06920F0A7
:100EB00080502749C86100BFE069C8B32448406832
:100EC00000F00C00082860D0E069022848D100201A
:100ED00020490866FFF7F0FB054606E0FFF7ECFB4C
:100EE000401B022801D903203AE61948006800F0A7
:100EF00000700028F2D1206AB0F5803F07D1144875
:100F0000406820F40030A168084311494860D4E9E2
:100F1000080108430E49496821F4741108430C493B
:100F2000486001200B490866FFF7C6FB054607E04D
:100F30003DE0FFF7C1FB401B022801D903200FE66B
:100F40000348006800F000700028F2D02FE0000095
:100F50000010024000004242800442420070004003
:100F6000002014490866FFF7A7FB054606E0FFF7D7
:100F7000A3FB401B022801D90320F1E50E480068BD
:100F800000F000700028F2D111E0E069012800D1E2
:100F9000E6E50948466806F48031206A814204D1BA
:100FA00006F47011606A814201D00120D8E500206A
:100FB000D6E5000000004242001002407047704732
:100FC00010B504460CB9012010BD94F83D0028B9B5
:100FD000002084F83C00204600F025F8022084F828
:100FE0003D00211D206800F095FC012084F846009A
:100FF00000BF84F83E0001213F20015540200155EB
:101000004120015500BF00BF012084F84200432069
:101010000155442001554520015500BF012084F8A9
:101020003D000020D0E77047014691F83D000128BF
:1010300001D001207047022081F83D000868C06897
:1010400040F001000B68D860124B086898420BD042
:101050000868B0F1804F07D00F4B0868984203D062
:101060000E4B086898420CD10868806800F00702AF
:10107000062A0CD00868006840F001000B68186070
:1010800005E00868006840F001000B681860002067
:10109000D0E70000002C01400004004000080040A0
:1010A000704770B504462068C5682068066906F078
:1010B0000200022819D105F00200022815D1401FB4
:1010C00021680861012020772068806900F0030012
:1010D00018B12046FFF7E4FF05E0204600F097F83E
:1010E000204600F095F80020207706F00400042840
:1010F00019D105F00400042815D1C0432168086106
:10110000022020772068806900F4407018B12046E2
:10111000FFF7C6FF05E0204600F079F8204600F012
:1011200077F80020207706F00800082819D105F08C
:101130000800082815D1C0432168086104202077E1
:101140002068C06900F0030018B12046FFF7A8FF2F
:1011500005E0204600F05BF8204600F059F800203A
:10116000207706F01000102819D105F01000102883
:1011700015D1C04321680861082020772068C06924
:1011800000F4407018B12046FFF78AFF05E02046C2
:1011900000F03DF8204600F03BF80020207706F0F4
:1011A000010048B105F0010030B16FF00100216885
:1011B0000861204600F02DF806F08000802809D153
:1011C00005F08000802805D1C043216808612046D1
:1011D000FFF7F4FE06F04000402809D105F040007A
:1011E000402805D1C04321680861204600F01AF864
:1011F00006F02000202809D105F02000202805D184
:10120000C043216808612046FFF7D9FE70BD7047D2
:10121000704710B504462068B0F1804F01D1FFF748
:1012200051FA10BD70477047704700002DE9F84F24
:101230000446206805682068C668206847694FF042
:101240000009CA4605F00F09B9F1000F0AD105F0EF
:10125000200038B106F0200020B1204600F0ECFB61
:10126000BDE8F88FB9F1000F7BD007F0010018B985
:1012700006F49070002874D005F0010030B106F437
:10128000807018B1606C40F00100606405F00400EB
:1012900030B107F0010018B1606C40F002006064EA
:1012A00005F0020030B107F0010018B1606C40F0A9
:1012B0000400606405F0080048B106F0200010B991
:1012C00007F0010018B1606C40F008006064606CC9
:1012D000002845D005F0200028B106F0200010B10C
:1012E000204600F0A9FB20684069C0F3801A606CBA
:1012F00000F0080010B9BAF1000F2CD0204600F021
:1013000055FB2068406900F0400000B300BF00BFFB
:101310002168143151E8001F21F040002168143188
:1013200041E80002002AF3D100BFE06B50B17748DA
:10133000E16B4863E06BFEF7ABFF88B1E06B416B9C
:1013400088470DE02046FFF76FFF09E009E02046DF
:10135000FFF76AFF04E02046FFF766FF00206064A5
:101360007EE7206B012877D105F01000002873D0AC
:1013700006F010000028FAD000BF0020009020687E
:101380000068009020684068009000BF00BF20689F
:10139000406900F0400000285FD0E06B00684068C2
:1013A0001FFA80F8B8F1000F55D0A08D404552DDEE
:1013B000A4F82E80E06B8069202843D000BF00BFD6
:1013C00021680C3151E8001F21F4807021680C3134
:1013D00041E80002002AF3D100BF00BF00BF21682E
:1013E000143151E8001F21F001002168143141E857
:1013F0000002002AF3D100BF00BF00BF21681431F2
:1014000051E8001F21F040002168143141E800023A
:10141000002AF3D100BF202084F84200002020637E
:1014200000BF00BF21680C3151E8001F21F01000FF
:1014300021680C3141E80002002AF3D100BFE06BC3
:10144000FEF7FAFE02206063A08DE28D801A81B261
:101450002046FFF7E8FE03E742E0A08DE18D401A49
:101460001FFA80F8E08DD0B3B8F1000F37D000BF7D
:1014700000BF21680C3151E8001F21F490702168F1
:101480000C3141E80002002AF3D100BF00BF00BFC9
:101490002168143151E8001F21F001002168143146
:1014A00041E80002002AF3D100BF202084F8420066
:1014B0000020206300BF00BF21680C3151E8001FED
:1014C00021F0100021680C3141E80002002AF3D11C
:1014D00000BF0220606341462046FFF7A4FEBFE63E
:1014E00005F0800030B106F0800018B1204600F011
:1014F0009FFBB5E605F0400030B106F0400018B1A2
:10150000204600F089FAABE600BFA9E69919000869
:1015100010B504460CB9012010BDA06900B100E06F
:1015200000BF94F8410028B9002084F8400020460C
:1015300000F02AF8242084F841002068C06820F4D4
:1015400000502168C860204600F0F4FA2068006965
:1015500020F49040216808612068406920F02A004A
:10156000216848612068C06840F400502168C86064
:1015700000206064202084F8410084F842000020AC
:10158000606300BFC8E7000010B586B004460020C5
:1015900002900390049005901E492068884236D13D
:1015A00000BF1D48806940F480401B49886108469F
:1015B000806900F48040019000BF00BF00BF084672
:1015C000806940F0040088610846806900F00400EA
:1015D000019000BF00BF4815029002200390032035
:1015E000059002A90D48FEF7BFFE4FF480600290FF
:1015F00000200390049002A90848FEF7B5FE0022DF
:1016000011462520FFF710F92520FFF7FDF806B059
:1016100010BD0000003801400010024000080140E9
:1016200070472DE9F84F04460E46174699464FF08D
:10163000000A94F84100202850D106B117B90120C2
:10164000BDE8F88F00206064212084F84100FFF796
:1016500033F88246A784E784A068B0F5805F04D1A0
:10166000206910B90025B04602E035464FF0000869
:101670001EE05346002280212046CDF8009000F065
:1016800007FB20B1202084F841000320D8E745B9AA
:10169000B8F80000C0F308002168486008F10208AB
:1016A00003E02878216848606D1CE08C401EE084CF
:1016B000E08C0028DDD15346002240212046CDF8A1
:1016C000009000F0E5FA20B1202084F841000320CA
:1016D000B6E7202084F841000020B1E70220AFE700
:1016E000704700BFFEE7000010B5002402211B4830
:1016F000FEF7CAFF88B14FF400611848FEF7C4FF37
:1017000058B14FF480511548FEF7BEFF28B14FF491
:1017100000411248FEF7B8FFE8B90A20FEF710FEB4
:1017200002210E48FEF7B0FF00B901244FF400611A
:101730000A48FEF7A9FF00B902244FF48051074878
:10174000FEF7A2FF00B903244FF400410348FEF75F
:101750009BFF00B90424204610BD0000000C01408E
:1017600010B5044621460248FEF796FF10BD000062
:101770000008014000B585B0002001900290039060
:10178000049000BF2448806940F02000224988610D
:101790000846806900F02000009000BF00BF00BF35
:1017A0000846806940F0040088610846806900F0BE
:1017B0000400009000BF00BF00BF0846806940F0F1
:1017C000080088610846806900F00800009000BFAA
:1017D00000BF012202211148FEF768FF00220C2100
:1017E0000E48FEF763FF0E200190012002900020BA
:1017F00003900220049001A90848FEF7B5FD49F6C0
:1018000002000190002002900120039001A90448E9
:10181000FEF7AAFD05B000BD00100240000801401F
:10182000000C014010B50B480B4908604FF4E13043
:101830004860002108488160C16001610C2141615C
:1018400000218161C161FFF763FE08B1FEF7F1FC81
:1018500010BD0000003801409800002000BFFEE7E6
:1018600000BFFEE708B508490968C9084FF47A7255
:10187000B1FBF2F14143009100BF00BF00994A1E45
:1018800000920029F9D108BD1C00002010B501F01C
:101890003BFB012801D001F0CFF910BD00B58FB09E
:1018A000282105A8FEF7A5FC14216846FEF7A1FC37
:1018B0000120059000040690002007900120099067
:1018C00002200C90C1030D914FF4E0110E9105A878
:1018D000FFF742F908B1FEF7ACFC0F2000900220A0
:1018E0000190002002904FF480600390002004904B
:1018F00002216846FEF7EAFF08B1FEF79AFC0FB036
:1019000000BD704710B50248FFF7CBFB10BD0000CB
:10191000E000002010B502681C4B984208D0B0F1DE
:10192000804F05D01A4B984202D01A4B984203D1EF
:1019300022F070024B681A43144B984208D0B0F161
:10194000804F05D0124B984202D0124B984203D1DF
:1019500022F44072CB681A4322F080034C6943EAB8
:10196000040202608B68C3620B688362074B984273
:1019700001D10B69036301234361036903F0010390
:101980001BB1036923F00103036110BD002C01406A
:10199000000400400008004070B505466C6A002055
:1019A000E085E0842046FFF73FFC70BD00BF00BF2C
:1019B00002680C3252E8002F22F4907102680C3257
:1019C00042E80013002BF3D100BF00BF00BF026844
:1019D000143252E8002F22F001010268143242E86A
:1019E0000013002BF3D100BF016B01290ED100BF02
:1019F00000BF02680C3252E8002F22F0100102688A
:101A00000C3242E80013002BF3D100BF202180F8F4
:101A1000421000210163704710B504462068C06879
:101A200020F040002168C860202084F84100204652
:101A3000FFF756FE002010BDF8B5044694F84200AA
:101A4000222875D1A068B0F5805F0CD1206950B90B
:101A50000025A66A20684068C0F308003080A06AAC
:101A6000801CA06215E0A56A0026A068B0F5805F22
:101A700003D0A06828B9206918B920684068287088
:101A800004E02068406800F07F002870A06A401CD5
:101A9000A062E08D401E80B2E085002846D120681B
:101AA000C06820F020002168C8602068C06820F469
:101AB00080702168C8602068406920F001002168BA
:101AC0004861202084F8420000206063206B0128D8
:101AD00026D10020206300BF00BF21680C3151E8EF
:101AE000001F21F0100021680C3141E80002002A9B
:101AF000F3D100BF2068006800F0100010280AD160
:101B000000BF0020009020680068009020684068B6
:101B1000009000BF00BFA18D2046FFF784FB02E0CC
:101B20002046FFF77DFD0020F8BD01E00020FBE727
:101B30000220F9E770B504462168096921F4405193
:101B4000E2681143226811612269A1681143626948
:101B500041EA02052168C96841F20C6291432943B8
:101B60002268D1602168496921F44071A26911435A
:101B7000226851612D4A2168914202D1FEF7A4FFEB
:101B800001E0FEF791FF00EBC00101EB001162687C
:101B90009200B1FBF2F100EBC00202EB00126368AD
:101BA0009B00B2FBF3F26423B2FBF3F202EBC2033D
:101BB00003EB0212A1EB8201322202EB011164223B
:101BC000B1FBF2F101F0F00100EBC00202EB0012F8
:101BD00063689B00B2FBF3F26423B2FBF3F201EB08
:101BE000021200EBC00101EB001163689B00B1FB26
:101BF000F3F100EBC00303EB00136668B600B3FB20
:101C0000F6F36426B3FBF6F303EBC30606EB03130C
:101C1000A1EB8301322303EB01116423B1FBF3F148
:101C200001F00F0111442268916070BD003801403D
:101C3000014691F84100212828D18868B0F5805FDD
:101C40000BD1086948B90A6A1088C0F308000B680C
:101C50005860086A801C086205E00B6A581C08621C
:101C600018780B685860C88C401E80B2C88458B978
:101C70000868C06820F080000B68D8600868C068F9
:101C800040F040000B68D860002070470220FCE75D
:101C90002DE9F84304460D4617469846089E31E064
:101CA000701C70B3FEF708FDA0EB0800B04200D82E
:101CB00016B90320BDE8F8832068C06800F004006E
:101CC000F8B1802D1ED0402D1CD020680068C0F3D4
:101CD000C000B0B100BF00200090206800680090F4
:101CE00020684068009000BF00BF2046FFF75EFEFE
:101CF0000820606400BF002084F8400000BF01207D
:101D0000D8E7FFE7206800682840A84201D10120F9
:101D100000E00020B842C3D00020CBE710B5024855
:101D2000FFF784FA10BD00009800002000BFFEE716
:101D3000014A024900F02FB8B91D000894000020A4
:101D400002480068C0F30220704700000CED00E07C
:101D500010B5002804DB0A07130E054A135406E0E9
:101D60000A07140E034A00F00F031B1FD45410BDC2
:101D700000E400E018ED00E002E008C8121F08C10E
:101D8000002AFAD170477047002001E001C1121FFC
:101D9000002AFBD170472DE9F04116460F46044654
:101DA000002503E03946B047641C6D1C20780028EC
:101DB000F8D12846BDE8F08113B50C464FF47A738C
:101DC000012269460248FFF72CFC00981CBD000068
:101DD000980000200EB50848084901220023CDE9EB
:101DE00000210290802206A1084801F061F808490C
:101DF000086000F081FE0EBD2803002028010020AD
:101E000073746172745F7461736B0000492600081B
:101E100000000020FEF762FCFFF740FDFFF7AAFC80
:101E2000FFF700FDFFF7D6FF00BFFEE72DE9F04109
:101E300005460E462648076826480068001D00F043
:101E4000B3FC50B92348006890F82C10012088405A
:101E500021490968814320480160681CD8B9D6B17E
:101E60001E4948681B49096888601A4982680968E0
:101E7000CA6018490968091D8268516015490968D6
:101E8000091D8160154A134909684A6111460968AC
:101E9000491C11601AE07C190E4800684460BC427D
:101EA00007D20C480168091D0D48006800F0B8FC15
:101EB0000CE008480168091D0A48006800F0B0FC01
:101EC00009480068844201D207480460BDE8F081F7
:101ED000340000202000002038000020A411002041
:101EE00028000020240000205000002010B50446E7
:101EF00000F0BCFC2F480068401C2E4908602E48AA
:101F0000006840B92C4804600846006801280DD1DB
:101F100000F052F90AE02948006838B926480068FC
:101F2000C06AE16A884201D82348046024480068F6
:101F3000401C2349086094F82C1001208840214956
:101F4000096808431F490860E16A01EB81011E4AE4
:101F500002EB81014868A0608268E260211D82680E
:101F600051608160E16A01EB8101174A02EB810255
:101F70006261E16A01EB8101134A52F82110491CA8
:101F8000E26A02EB8202104B43F8221000F080FC60
:101F90000A48006868B108480068C06AE16A884277
:101FA00007D24FF0805009490860BFF34F8FBFF34D
:101FB0006F8F10BD30000020200000203C0000206A
:101FC0004C00002038000020F010002004ED00E05C
:101FD00008B500F04BFC0E480068A8B90D4800F0A9
:101FE0000FFC0D4800F00CFC0A480C4908600A4838
:101FF0000B49086000200B4B0B4A0C210090052078
:1020000000F034FE0249086000F042FC08BD000008
:1020100068000020B8110020CC11002060000020D2
:1020200064000020E01100202812002010B516E006
:1020300000F01CFC0C48C068C468201D00F0B4FB14
:102040000A480068401E0949086009480068401EA7
:102050000749086000F01CFC204600F020F8044806
:1020600000680028E4D110BD90110020300000204D
:102070002C00002070B504460D46206C70B1216C18
:10208000E0680144E160D4E90210884201D321688C
:10209000E1602846226CE168FEF792F870BD10B549
:1020A000044694F8490030B9206B00F001FC20464A
:1020B00000F0FEFB06E094F84900012802D120461A
:1020C00000F0F6FB10BD00000146084A12681268D5
:1020D0000AB9012200E000220A600A6822B9034A14
:1020E0001268D268106800E000207047600000208D
:1020F00000BFFFF79BFF064800680128F9D94FF0A1
:10210000805004490860BFF34F8FBFF36F8FF0E733
:10211000F010002004ED00E02DE9F04106460D46E8
:1021200017469846069C0DB9246000E02760E663D8
:1021300025640121204600F0B9FDBDE8F0812DE9BC
:10214000FF5F80460E469146DDE90E7A109CA9F1AC
:102150000100216B01EB800B2BF0070B7EB10025FA
:1021600007E0715D04F134004155705D00B902E093
:102170006D1C102DF5D300BF002143200155052F04
:1021800000D30427E762201D00F047FB04F118008C
:1021900000F043FB2461C7F10500A0616462414681
:1021A0005846039A00F03EFA2060BAF1000F01D0C1
:1021B000CAF80040BDE8FF9F10B5002407E004EB1B
:1021C00084010F4A02EB810000F01AFB641C052C0D
:1021D000F5D30C4800F014FB0B4800F011FB0B4842
:1021E00000F00EFB0A4800F00BFB0A4800F008FB69
:1021F00004480949086004480849086010BD000007
:10220000F010002054110020681100207C110020E3
:1022100090110020A411002024000020280000209C
:1022200010B50146164800E0006803688B42FBD3F6
:102230000246436813448B4204D143684C682344EC
:10224000436001460A464B6813440468A34211D117
:102250000C4C03682468A34208D04B680468646887
:1022600023444B6003681B680B6005E0054B1B684B
:102270000B6001E003680B60884200D0016010BD74
:1022800078000020800000202DE9F04104460D4632
:1022900016461F464FF0000865602461B5420CD811
:1022A000F01BA169884202D34FF0010811E0211D03
:1022B0000948006800F0B4FA0BE0BE4204D2BD4207
:1022C00002D34FF0010804E0211D0448006800F02B
:1022D000A7FA4046BDE8F0816400002060000020BD
:1022E00070B5054600F0C2FAA86B08B9012400E0F9
:1022F000002400F0CDFA204670BD000070B5054600
:102300000E460E480068C068C468201D00F04CFAF4
:1023100094F8240000F0040028B1324629462046F3
:1023200000F0C4F805E094F8240000F0FE0084F802
:1023300024002046216A884770BD0000600000200C
:102340007FB56EE0019800286BDB039C606908B9DB
:10235000012000E0002010B9201D00F025FA684699
:1023600000F0D0F8054601980A2858D2DFE800F0BE
:102370005705072E364706082F3700BF00BF00BF9E
:1023800094F8240040F0010084F824000298A26927
:10239000811803462A462046FFF776FFA8B194F835
:1023A000240000F0040038B10298A26981182A467E
:1023B000204600F07BF805E094F8240000F0FE00D1
:1023C00084F824002046216A884729E000BF94F859
:1023D000240000F0FE0084F8240021E000BF94F8FF
:1023E000240040F0010084F824000298A061A06954
:1023F00041192B462A462046FFF746FF10E094F885
:10240000240000F0020018B9204600F051FA05E05F
:1024100094F8240000F0FE0084F8240000E000BFDF
:1024200000BF002201A90348006800F08FFC0028CB
:1024300088D17FBD68000020F8B505460C4600F045
:10244000A9FB684600F05EF80646009820BB44B938
:10245000B54206D800F0BAFE31462846FFF74EFFD7
:102460001CE03CB10E480068006808B9012000E09B
:1024700000200446A91B22460A48006800F04AFAD8
:1024800000F0A4FE50B94FF0805007490860BFF338
:102490004F8FBFF36F8F01E000F098FEF8BD000092
:1024A000640000206800002004ED00E070B50446E0
:1024B0000D46164604E0A06905442046216A884777
:1024C000A06941192B4632462046FFF7DDFE002861
:1024D000F1D170BD09480068006808B9012000E02A
:1024E000002020B14FF0FF300549086005E00348A7
:1024F0000068C06800680249086070472400002036
:102500005000002070B5044600F00EFD0546074857
:102510000068854204D200F00BF80120206001E041
:102520000020206001480560284670BD7000002032
:1025300070B508E00D480068C06804684FF0FF31CE
:102540002046FFF7DBFE09480068006808B9012053
:1025500000E000200028EDD0044805680448006829
:10256000024908600248056070BD0000600000205C
:102570006400002000BFBF2080F31188BFF34F8F9D
:10258000BFF36F8F00BF00BFFEE708B500BF68460E
:10259000FFF79AFD044620460099FFF74DFFFFF72D
:1025A000CFFEF4E770B5044600F060F994F94550A9
:1025B00010E0606A08B9012000E0002038B904F199
:1025C000240000F07FFD18B100F05AFA00E003E0AB
:1025D000681E45B2002DECDC00BFFF2084F84500EA
:1025E00000F056F900F042F994F9445010E02069E7
:1025F00008B9012000E0002048B904F1100000F003
:1026000061FD08B100F03CFA681E45B200E001E04F
:10261000002DECDC00BFFF2084F8440000F038F906
:1026200070BD0000001F4FF080730360001F21F099
:1026300001030360001F034B03601438026020385D
:1026400070470000752500083EB5044600F00EF9FD
:102650001748184902220023CDE900210290802268
:1026600015A1174800F024FC1649086016481749C0
:1026700003220023CDE900210290802214A11648F4
:1026800000F016FC1549086015481649042200237D
:10269000CDE900210290802213A1154800F008FC2A
:1026A00014490860002000F075F900F0F1F83EBD13
:1026B00074050020740300207461736B3100000006
:1026C000F926000804000020C0070020C0050020F3
:1026D0007461736B3200000021270008080000209D
:1026E0000C0A00200C0800207461736B330000009A
:1026F000492700080C00002009E005A0FFF718FB9F
:102700000220FFF72DF84FF4FA7000F029F9F4E7F2
:102710007461736B31D4CBD0D02E2E2E0D0A0000F5
:1027200009E005A0FFF704FB0420FFF719F84FF4B8
:10273000FA7000F015F9F4E77461736B32D4CBD002
:10274000D02E2E2E0D0A0000002418E00CA0FFF75A
:10275000EFFAFEF7C9FF0446012C0CD10C480068C3
:1027600048B10CA0FFF7E4FA0948006800F012F93C
:102770000020074908604FF4FA7000F0F1F8E5E72F
:102780007461736B33D4CBD0D02E2E2E0D0A000083
:1027900004000020D6B4D0D0C9BEB3FD5461736B21
:1027A000312E2E2E2E0D0A0001460A69D1E9013084
:1027B0009860D1E9010358605068884201D1886867
:1027C0005060002008611068401E1060106870475B
:1027D000034B0360034B0B608023136070470000C2
:1027E000580C0020580A0020034B0360034B0B6079
:1027F0004FF4807313607047A4100020A40C0020D5
:1028000000F1080141604FF0FF31816000F10801E3
:10281000C1600161002101607047002101617047C2
:1028200010B502460B685C1C0CB9106907E002F198
:10283000080000E04068446824689C42FAD9446873
:102840004C604C68A160886041600A611468641C37
:10285000146010BD42684A6093688B609368596049
:102860009160086103685B1C0360704700BFBF2074
:1028700080F31188BFF34F8FBFF36F8F00BF034802
:102880000068401C01490860704700007400002087
:1028900006480068401E054908600846006820B9DF
:1028A000002080F3118800BF00BF70477400002033
:1028B00070B506463546E6B1083D2C466068C00F47
:1028C000B8B12068A8B9606820F00040606000F0EE
:1028D00061F90849606809680844064908602046AB
:1028E000FFF79EFC04480068401C0349086000F0A4
:1028F0006DFC70BD840000209000002000204FF08F
:10290000E02108618861024848610720086170473A
:102910003F1901002DE9F04105460E4617462C46A9
:10292000FFF7A4FF94F94400401C10B9002084F87C
:10293000440094F94500401C10B9002084F845007B
:10294000FFF7A6FFA06B28B93A46314604F12400F0
:1029500000F0ACF82046FFF725FEBDE8F08100004E
:1029600070B50446002544B100F014F9002120465A
:10297000FFF75CFA00F02AFC05463DB94FF08050A5
:1029800003490860BFF34F8FBFF36F8F70BD000026
:1029900004ED00E070B50546FFF768FF15B929485A
:1029A000006800E028460446201DFFF7FDFE78B9C8
:1029B000E06A00EB8000244951F8200040B994F807
:1029C0002C10012088402149096881431F4801607B
:1029D000A06A18B104F11800FFF7E6FE1C48006871
:1029E000401C1B49086017480068844209D1211D1A
:1029F0001848FFF72FFF18480068401C1649086068
:102A000006E016480068401E14490860FFF762FDA2
:102A1000FFF73EFF0B480068844202D02046FFF7D4
:102A20003EFB0F48006858B106480068844207D151
:102A30004FF080500B490860BFF34F8FBFF36F8F8B
:102A400070BD000020000020F010002038000020A1
:102A50004C000020901100202C00002030000020AD
:102A60003C00002004ED00E00349096801600349CF
:102A700009684160704700004800002034000020D1
:102A800001200149086070474400002070B50546E8
:102A90000C460548016818312846FFF7C1FE0121A0
:102AA0002046FFF7C3F970BD2000002070B5044632
:102AB0000E46154660680F490968C8610D4982686D
:102AC00009680A620B49096818318268516009492E
:102AD000096818318160074909688C622168491CBE
:102AE00021600DB14FF0FF3629463046FFF79EF9C1
:102AF00070BD00002000002010B586B000200590B9
:102B0000049003AA04A905A8FFF762FE0022DDE9EC
:102B100004101346CDE90021029016A11748039A2C
:102B200000F0C6F9164908600846006808B101249B
:102B300000E00024012C02D100F0F6FB0446012C39
:102B400014D100BFBF2080F31188BFF34F8FBFF3B4
:102B50006F8F00BF4FF0FF300A49086001200A491B
:102B6000086000200949086000F04CF80848006837
:102B700006B010BD49444C4500000000F12000089B
:102B800054000020500000203C00002034000020B1
:102B90005800002002480068401C01490860704746
:102BA0005C0000201248006818B10120114908603B
:102BB0001DE000200F4908600F480068B0FA80F05F
:102BC000C0F11F0101EB81020C4B03EB8200426854
:102BD0005268426000F108024368934202D14268A1
:102BE000526842604268D268054B1A6000BF704765
:102BF0005C0000204400002038000020F01000207D
:102C00002000002010B50A48006840F47F00084901
:102C100008600846006840F07F400860FFF76EFEDD
:102C2000002004490860FDF77FFA002010BD000075
:102C300020ED00E07400002010B500BFBF2080F33D
:102C40001188BFF34F8FBFF36F8F00BF00F072F991
:102C500018B14FF080500449086000BF002080F395
:102C6000118800BF10BD000004ED00E02DE9F8431D
:102C700080460D4616461C46DDF820900027B8F128
:102C8000000F0FD074B106B165B106B955B927462A
:102C9000012087F846004B463246294640460097B9
:102CA000FFF73AFA3846BDE8F88300002DE9F04115
:102CB00005460E4601272C46002C41D0E06B00282B
:102CC0003ED0B91EE06BB1FBF0F0216C884237D3E7
:102CD000FFF7CCFDD4E90F12206801FB0200A060D1
:102CE0000020A06320686060E06B401E226C2168B9
:102CF00000FB0211E160FF2084F8440084F84500E5
:102D00009EB9206908B9012000E00020A8B904F1AB
:102D1000100000F0D7F980B14FF080500A490860E8
:102D2000BFF34F8FBFF36F8F07E004F11000FFF781
:102D300067FD04F12400FFF763FDFFF7A9FD00E044
:102D400000273846BDE8F08104ED00E02DE9F741A9
:102D500083B005460F464FF000082C4600BFFFF732
:102D600085FDA66BF6B139462046FFF783F9701E44
:102D7000A063206908B9012000E0002060B904F1D7
:102D8000100000F09FF938B14FF080502F490860D3
:102D9000BFF34F8FBFF36F8FFFF77AFD012006B0AF
:102DA000BDE8F081059818B9FFF772FD0020F6E73D
:102DB000B8F1000F04D101A8FFF756FE4FF001084B
:102DC000FFF766FDFFF7E6FEFFF750FD94F94400BC
:102DD000401C10B9002084F8440094F94500401CC0
:102DE00010B9002084F84500FFF752FD05A901A89D
:102DF00000F02EF8F0B92046FFF772FAA0B104F106
:102E000024000599FFF742FE2046FFF7CBFB00F0B8
:102E1000DDF90028A3D14FF080500C490860BFF3C2
:102E20004F8FBFF36F8F9AE72046FFF7BBFB00F091
:102E3000CDF994E72046FFF7B5FB00F0C7F920462F
:102E4000FFF74EFA00288AD00020A8E704ED00E042
:102E500070B506460C46FFF709FD13480268706816
:102E6000131A2068401C08B9002519E00F49306882
:102E70000968884206D07068904203D80125002076
:102E800020600DE02068984207D92068C01A2060B1
:102E90003046FFF7E9FD002502E000202060012513
:102EA000FFF7F6FC284670BD3400002048000020E3
:102EB0002DE9F04F85B00746884691469A46DDE9F0
:102EC0000EB6109CCCB1C6B125464C212846FDF764
:102ED00090F92E63022085F84900002004A953468A
:102EE0004A46CDE900B1CDE9025041463846FFF7E8
:102EF00026F92846FEF7FAFF01E000200490049826
:102F000005B0BDE8F08F00000549096809B9012046
:102F100005E00449096809B9022000E00020704773
:102F20003C0000205C000020014908687047000058
:102F3000340000202DE9F0410027574800680028A0
:102F40007ED156480068451C544805608DB95448E8
:102F5000D0F8008053480068514908605148C0F8D3
:102F6000008051480068401C4F490860FFF7B2FAE2
:102F700000BF4E480068854276D300BF48480068CD
:102F8000006808B9012000E0002020B14FF0FF30B8
:102F90004649086067E042480068C068C4686668DF
:102FA000B54202D2414806605DE06069D4E9021290
:102FB0008A60D4E902214A60211D42688A4201D117
:102FC000E1684160002262610168491E0160A06AF7
:102FD00098B1A06AD4E907128A60D4E907214A604F
:102FE00004F1180142688A4201D1216A416000223D
:102FF000A2620168491E016000BF94F82C100120F4
:1030000088402B490968084329490860E16A01EBB7
:103010008101284A02EB81014868A0608268E26071
:10302000211D826851608160E16A01EB8101214AC2
:1030300002EB81026261E16A01EB81011D4A00E05D
:1030400022E052F82110491CE26A02EB8202194B7D
:1030500043F822101849E06A0968C96A88428DD984
:1030600001278BE700E000BF13480068C06A00EB4F
:103070008000104951F82000012800D901270F488D
:10308000006800B1012704E00D480068401C0C49AD
:1030900008603846BDE8F0815C0000203400002064
:1030A00024000020280000204800002050000020BC
:1030B00038000020F01000202000002044000020F4
:1030C0004000002070B50346D868C168886AD1E91D
:1030D0000745A560D1E90754656001F1180445680A
:1030E000A54201D10C6A446000258D620468641E0B
:1030F00004603048006800283DD14869D1E90245A4
:10310000A560D1E9025465600C1D4568A54201D156
:10311000CC68446000254D610468641E046091F829
:103120002C400120A040244C24682043224C2060E5
:10313000CC6A04EB8404214D05EB8404606888604C
:103140008568CD600C1D85686C608460CC6A04EB7A
:1031500084041A4D05EB84054D61CC6A04EB8404AC
:10316000164D55F82440641CCD6A05EB8505134EB9
:1031700046F8254010E0124C6068C86185680D6211
:1031800001F1180485686C6084600D4D8D622C46D9
:103190002468641C2C6000BF0A4CC86A2468E46A76
:1031A000A04204D901220120074C206000E0002247
:1031B000104670BD5C00002038000020F010002098
:1031C0007C110020200000204400002070B5002465
:1031D0000026FFF74BFB4B480068401E494908603A
:1031E0000846006800287DD147480068002879D04B
:1031F0005BE04648C068C468A06AD4E907128A60E8
:10320000D4E907214A6004F1180142688A4201D1D9
:10321000216A41600022A2620168491E0160606962
:10322000D4E902128A60D4E902214A60211D426871
:103230008A4201D1E1684160002262610168491E51
:10324000016094F82C100120884031490968084336
:103250002F490860E16A01EB81012E4A02EB8101EE
:103260004868A0608268E260211D826851608160C8
:10327000E16A01EB8101274A02EB81026261E16AA6
:1032800001EB8101234A52F82110491CE26A02EB4A
:103290008202204B43F822101F49E06A0968C96A7C
:1032A000884202D301201D4908601848006808B907
:1032B000012000E0002000289BD00CB1FFF70AF9A4
:1032C0001748056865B100BFFFF734FE10B1012053
:1032D000124908606D1E002DF6D1002010490860CB
:1032E0000E4800E009E0006838B1012630070D49BA
:1032F0000860BFF34F8FBFF36F8FFFF7C9FA3046F7
:1033000070BD00005C000020300000207C11002017
:1033100038000020F0100020200000204400002091
:103320004000002004ED00E010B586B00024FEF758
:103330004FFE10480068D0B100200590049003AA09
:1033400004A905A8FFF750FA0422DDE904100023C0
:10335000CDE90021029008A10948039AFFF7A8FDD2
:10336000084908600846006800B1012400BF2046F3
:1033700006B010BD68000020546D722053766300C3
:103380008B2500086C0000200203040506070809CD
:103390000A0B0C0D0E0F10100102000000000000BF
:1033A00000000102030406070809000000000102F2
:1033B00003040000D433000800000020980000003F
:1033C000781D00086C34000898000020D01500001B
:1033D000881D000800000000000000000000000040
:1033E00000000000000000001000000001000000CC
:1033F00000127A0000000000000000000000000041
:1034000000000000000000000000000000000000BC
:1034100000000000000000000000000000000000AC
:103420000000000000000000000000000400000098
:10343000000000000000000000000000000000008C
:103440000000000000000000AAAAAAAA00000000D4
:10345000000000000000000000000000000000006C
:0C34600000000000000000000000000060
:04000005080000ED02
:00000001FF
